{"contracts/ItemCollection.sol":{"ItemCollection":{"abi":[{"anonymous":false,"inputs":[{"indexed":true,"internalType":"address","name":"owner","type":"address"},{"indexed":false,"internalType":"string","name":"item","type":"string"}],"name":"Buy","type":"event"},{"anonymous":false,"inputs":[{"indexed":true,"internalType":"address","name":"from","type":"address"},{"indexed":true,"internalType":"address","name":"to","type":"address"},{"indexed":false,"internalType":"string","name":"item","type":"string"}],"name":"Gift","type":"event"},{"anonymous":false,"inputs":[{"indexed":true,"internalType":"address","name":"owner","type":"address"},{"indexed":false,"internalType":"string","name":"item","type":"string"}],"name":"Sell","type":"event"},{"inputs":[{"internalType":"address","name":"_account","type":"address"},{"internalType":"string","name":"_item","type":"string"}],"name":"buy","outputs":[],"stateMutability":"nonpayable","type":"function"},{"inputs":[{"internalType":"address","name":"_address","type":"address"}],"name":"getCollection","outputs":[{"internalType":"string[]","name":"","type":"string[]"}],"stateMutability":"view","type":"function"},{"inputs":[{"internalType":"address","name":"_from","type":"address"},{"internalType":"address","name":"_to","type":"address"},{"internalType":"string","name":"_item","type":"string"}],"name":"gift","outputs":[],"stateMutability":"nonpayable","type":"function"},{"inputs":[{"internalType":"address","name":"_account","type":"address"},{"internalType":"string","name":"_item","type":"string"}],"name":"sell","outputs":[],"stateMutability":"nonpayable","type":"function"}],"evm":{"bytecode":{"linkReferences":{},"object":"608060405234801561001057600080fd5b50611307806100206000396000f3fe608060405234801561001057600080fd5b506004361061004c5760003560e01c8063655f272e1461005157806370488f011461006d5780638345183814610089578063e40de887146100a5575b600080fd5b61006b60048036038101906100669190610a47565b6100d5565b005b61008760048036038101906100829190610aa3565b610184565b005b6100a3600480360381019061009e9190610a47565b6102bc565b005b6100bf60048036038101906100ba9190610b12565b61037f565b6040516100cc9190610c80565b60405180910390f35b60006100e18383610496565b90506000811215610127576040517f08c379a000000000000000000000000000000000000000000000000000000000815260040161011e90610cff565b60405180910390fd5b61013183826106ae565b8273ffffffffffffffffffffffffffffffffffffffff167f4f91c24b791e98fc3409614f2b262d620c1dc2f7fd263bd6a149fb34223e5409836040516101779190610d58565b60405180910390a2505050565b60006101908483610496565b905060008112156101d6576040517f08c379a00000000000000000000000000000000000000000000000000000000081526004016101cd90610cff565b60405180910390fd5b6101e084826106ae565b6000808473ffffffffffffffffffffffffffffffffffffffff1673ffffffffffffffffffffffffffffffffffffffff168152602001908152602001600020829080600181540180825580915050600190039060005260206000200160009091909190915090816102509190610f90565b508273ffffffffffffffffffffffffffffffffffffffff168473ffffffffffffffffffffffffffffffffffffffff167fc1340f88823fd1a662cd09eac20f01c2806a387ac043bb0ea8c47b72135bbc4f846040516102ae9190610d58565b60405180910390a350505050565b6000808373ffffffffffffffffffffffffffffffffffffffff1673ffffffffffffffffffffffffffffffffffffffff1681526020019081526020016000208190806001815401808255809150506001900390600052602060002001600090919091909150908161032c9190610f90565b508173ffffffffffffffffffffffffffffffffffffffff167f9d3d1943d35d4f7f2aea4530c02e43fe3be54e0bc5e79dfbb2a74d9cd2f06d51826040516103739190610d58565b60405180910390a25050565b60606000808373ffffffffffffffffffffffffffffffffffffffff1673ffffffffffffffffffffffffffffffffffffffff168152602001908152602001600020805480602002602001604051908101604052809291908181526020016000905b8282101561048b5783829060005260206000200180546103fe90610da9565b80601f016020809104026020016040519081016040528092919081815260200182805461042a90610da9565b80156104775780601f1061044c57610100808354040283529160200191610477565b820191906000526020600020905b81548152906001019060200180831161045a57829003601f168201915b5050505050815260200190600101906103df565b505050509050919050565b6000807fffffffffffffffffffffffffffffffffffffffffffffffffffffffffffffffff905060008060008673ffffffffffffffffffffffffffffffffffffffff1673ffffffffffffffffffffffffffffffffffffffff168152602001908152602001600020805480602002602001604051908101604052809291908181526020016000905b828210156105c857838290600052602060002001805461053b90610da9565b80601f016020809104026020016040519081016040528092919081815260200182805461056790610da9565b80156105b45780601f10610589576101008083540402835291602001916105b4565b820191906000526020600020905b81548152906001019060200180831161059757829003601f168201915b50505050508152602001906001019061051c565b50505050905060005b6000808773ffffffffffffffffffffffffffffffffffffffff1673ffffffffffffffffffffffffffffffffffffffff168152602001908152602001600020805490508110156106a25781818151811061062d5761062c611062565b5b602002602001015160405160200161064591906110cd565b604051602081830303815290604052805190602001208560405160200161066c91906110cd565b604051602081830303815290604052805190602001200361068f578092506106a2565b808061069a90611113565b9150506105d1565b50819250505092915050565b600060016000808573ffffffffffffffffffffffffffffffffffffffff1673ffffffffffffffffffffffffffffffffffffffff168152602001908152602001600020805490506106fe919061115b565b90506000808473ffffffffffffffffffffffffffffffffffffffff1673ffffffffffffffffffffffffffffffffffffffff16815260200190815260200160002081815481106107505761074f611062565b5b906000526020600020016000808573ffffffffffffffffffffffffffffffffffffffff1673ffffffffffffffffffffffffffffffffffffffff16815260200190815260200160002083815481106107aa576107a9611062565b5b9060005260206000200190816107c091906111ba565b506000808473ffffffffffffffffffffffffffffffffffffffff1673ffffffffffffffffffffffffffffffffffffffff16815260200190815260200160002080548061080f5761080e6112a2565b5b60019003818190600052602060002001600061082b9190610832565b9055505050565b50805461083e90610da9565b6000825580601f10610850575061086f565b601f01602090049060005260206000209081019061086e9190610872565b5b50565b5b8082111561088b576000816000905550600101610873565b5090565b6000604051905090565b600080fd5b600080fd5b600073ffffffffffffffffffffffffffffffffffffffff82169050919050565b60006108ce826108a3565b9050919050565b6108de816108c3565b81146108e957600080fd5b50565b6000813590506108fb816108d5565b92915050565b600080fd5b600080fd5b6000601f19601f8301169050919050565b7f4e487b7100000000000000000000000000000000000000000000000000000000600052604160045260246000fd5b6109548261090b565b810181811067ffffffffffffffff821117156109735761097261091c565b5b80604052505050565b600061098661088f565b9050610992828261094b565b919050565b600067ffffffffffffffff8211156109b2576109b161091c565b5b6109bb8261090b565b9050602081019050919050565b82818337600083830152505050565b60006109ea6109e584610997565b61097c565b905082815260208101848484011115610a0657610a05610906565b5b610a118482856109c8565b509392505050565b600082601f830112610a2e57610a2d610901565b5b8135610a3e8482602086016109d7565b91505092915050565b60008060408385031215610a5e57610a5d610899565b5b6000610a6c858286016108ec565b925050602083013567ffffffffffffffff811115610a8d57610a8c61089e565b5b610a9985828601610a19565b9150509250929050565b600080600060608486031215610abc57610abb610899565b5b6000610aca868287016108ec565b9350506020610adb868287016108ec565b925050604084013567ffffffffffffffff811115610afc57610afb61089e565b5b610b0886828701610a19565b9150509250925092565b600060208284031215610b2857610b27610899565b5b6000610b36848285016108ec565b91505092915050565b600081519050919050565b600082825260208201905092915050565b6000819050602082019050919050565b600081519050919050565b600082825260208201905092915050565b60005b83811015610ba5578082015181840152602081019050610b8a565b60008484015250505050565b6000610bbc82610b6b565b610bc68185610b76565b9350610bd6818560208601610b87565b610bdf8161090b565b840191505092915050565b6000610bf68383610bb1565b905092915050565b6000602082019050919050565b6000610c1682610b3f565b610c208185610b4a565b935083602082028501610c3285610b5b565b8060005b85811015610c6e5784840389528151610c4f8582610bea565b9450610c5a83610bfe565b925060208a01995050600181019050610c36565b50829750879550505050505092915050565b60006020820190508181036000830152610c9a8184610c0b565b905092915050565b600082825260208201905092915050565b7f596f7520646f6e277420686176652074686973206974656d2e00000000000000600082015250565b6000610ce9601983610ca2565b9150610cf482610cb3565b602082019050919050565b60006020820190508181036000830152610d1881610cdc565b9050919050565b6000610d2a82610b6b565b610d348185610ca2565b9350610d44818560208601610b87565b610d4d8161090b565b840191505092915050565b60006020820190508181036000830152610d728184610d1f565b905092915050565b7f4e487b7100000000000000000000000000000000000000000000000000000000600052602260045260246000fd5b60006002820490506001821680610dc157607f821691505b602082108103610dd457610dd3610d7a565b5b50919050565b60008190508160005260206000209050919050565b60006020601f8301049050919050565b600082821b905092915050565b600060088302610e3c7fffffffffffffffffffffffffffffffffffffffffffffffffffffffffffffffff82610dff565b610e468683610dff565b95508019841693508086168417925050509392505050565b6000819050919050565b6000819050919050565b6000610e8d610e88610e8384610e5e565b610e68565b610e5e565b9050919050565b6000819050919050565b610ea783610e72565b610ebb610eb382610e94565b848454610e0c565b825550505050565b600090565b610ed0610ec3565b610edb818484610e9e565b505050565b5b81811015610eff57610ef4600082610ec8565b600181019050610ee1565b5050565b601f821115610f4457610f1581610dda565b610f1e84610def565b81016020851015610f2d578190505b610f41610f3985610def565b830182610ee0565b50505b505050565b600082821c905092915050565b6000610f6760001984600802610f49565b1980831691505092915050565b6000610f808383610f56565b9150826002028217905092915050565b610f9982610b6b565b67ffffffffffffffff811115610fb257610fb161091c565b5b610fbc8254610da9565b610fc7828285610f03565b600060209050601f831160018114610ffa5760008415610fe8578287015190505b610ff28582610f74565b86555061105a565b601f19841661100886610dda565b60005b828110156110305784890151825560018201915060208501945060208101905061100b565b8683101561104d5784890151611049601f891682610f56565b8355505b6001600288020188555050505b505050505050565b7f4e487b7100000000000000000000000000000000000000000000000000000000600052603260045260246000fd5b600081905092915050565b60006110a782610b6b565b6110b18185611091565b93506110c1818560208601610b87565b80840191505092915050565b60006110d9828461109c565b915081905092915050565b7f4e487b7100000000000000000000000000000000000000000000000000000000600052601160045260246000fd5b600061111e82610e5e565b91507fffffffffffffffffffffffffffffffffffffffffffffffffffffffffffffffff82036111505761114f6110e4565b5b600182019050919050565b600061116682610e5e565b915061117183610e5e565b9250828203905081811115611189576111886110e4565b5b92915050565b60008154905061119e81610da9565b9050919050565b60008190508160005260206000209050919050565b8181036111c85750506112a0565b6111d18261118f565b67ffffffffffffffff8111156111ea576111e961091c565b5b6111f48254610da9565b6111ff828285610f03565b6000601f83116001811461122e576000841561121c578287015490505b6112268582610f74565b865550611299565b601f19841661123c876111a5565b965061124786610dda565b60005b8281101561126f5784890154825560018201915060018501945060208101905061124a565b8683101561128c5784890154611288601f891682610f56565b8355505b6001600288020188555050505b5050505050505b565b7f4e487b7100000000000000000000000000000000000000000000000000000000600052603160045260246000fdfea26469706673582212206ee367cf59b9abd66b53b5b25a5789b8444afb3a2a205b95d8c8aacf8074d72864736f6c63430008110033","opcodes":"PUSH1 0x80 PUSH1 0x40 MSTORE CALLVALUE DUP1 ISZERO PUSH2 0x10 JUMPI PUSH1 0x0 DUP1 REVERT JUMPDEST POP PUSH2 0x1307 DUP1 PUSH2 0x20 PUSH1 0x0 CODECOPY PUSH1 0x0 RETURN INVALID PUSH1 0x80 PUSH1 0x40 MSTORE CALLVALUE DUP1 ISZERO PUSH2 0x10 JUMPI PUSH1 0x0 DUP1 REVERT JUMPDEST POP PUSH1 0x4 CALLDATASIZE LT PUSH2 0x4C JUMPI PUSH1 0x0 CALLDATALOAD PUSH1 0xE0 SHR DUP1 PUSH4 0x655F272E EQ PUSH2 0x51 JUMPI DUP1 PUSH4 0x70488F01 EQ PUSH2 0x6D JUMPI DUP1 PUSH4 0x83451838 EQ PUSH2 0x89 JUMPI DUP1 PUSH4 0xE40DE887 EQ PUSH2 0xA5 JUMPI JUMPDEST PUSH1 0x0 DUP1 REVERT JUMPDEST PUSH2 0x6B PUSH1 0x4 DUP1 CALLDATASIZE SUB DUP2 ADD SWAP1 PUSH2 0x66 SWAP2 SWAP1 PUSH2 0xA47 JUMP JUMPDEST PUSH2 0xD5 JUMP JUMPDEST STOP JUMPDEST PUSH2 0x87 PUSH1 0x4 DUP1 CALLDATASIZE SUB DUP2 ADD SWAP1 PUSH2 0x82 SWAP2 SWAP1 PUSH2 0xAA3 JUMP JUMPDEST PUSH2 0x184 JUMP JUMPDEST STOP JUMPDEST PUSH2 0xA3 PUSH1 0x4 DUP1 CALLDATASIZE SUB DUP2 ADD SWAP1 PUSH2 0x9E SWAP2 SWAP1 PUSH2 0xA47 JUMP JUMPDEST PUSH2 0x2BC JUMP JUMPDEST STOP JUMPDEST PUSH2 0xBF PUSH1 0x4 DUP1 CALLDATASIZE SUB DUP2 ADD SWAP1 PUSH2 0xBA SWAP2 SWAP1 PUSH2 0xB12 JUMP JUMPDEST PUSH2 0x37F JUMP JUMPDEST PUSH1 0x40 MLOAD PUSH2 0xCC SWAP2 SWAP1 PUSH2 0xC80 JUMP JUMPDEST PUSH1 0x40 MLOAD DUP1 SWAP2 SUB SWAP1 RETURN JUMPDEST PUSH1 0x0 PUSH2 0xE1 DUP4 DUP4 PUSH2 0x496 JUMP JUMPDEST SWAP1 POP PUSH1 0x0 DUP2 SLT ISZERO PUSH2 0x127 JUMPI PUSH1 0x40 MLOAD PUSH32 0x8C379A000000000000000000000000000000000000000000000000000000000 DUP2 MSTORE PUSH1 0x4 ADD PUSH2 0x11E SWAP1 PUSH2 0xCFF JUMP JUMPDEST PUSH1 0x40 MLOAD DUP1 SWAP2 SUB SWAP1 REVERT JUMPDEST PUSH2 0x131 DUP4 DUP3 PUSH2 0x6AE JUMP JUMPDEST DUP3 PUSH20 0xFFFFFFFFFFFFFFFFFFFFFFFFFFFFFFFFFFFFFFFF AND PUSH32 0x4F91C24B791E98FC3409614F2B262D620C1DC2F7FD263BD6A149FB34223E5409 DUP4 PUSH1 0x40 MLOAD PUSH2 0x177 SWAP2 SWAP1 PUSH2 0xD58 JUMP JUMPDEST PUSH1 0x40 MLOAD DUP1 SWAP2 SUB SWAP1 LOG2 POP POP POP JUMP JUMPDEST PUSH1 0x0 PUSH2 0x190 DUP5 DUP4 PUSH2 0x496 JUMP JUMPDEST SWAP1 POP PUSH1 0x0 DUP2 SLT ISZERO PUSH2 0x1D6 JUMPI PUSH1 0x40 MLOAD PUSH32 0x8C379A000000000000000000000000000000000000000000000000000000000 DUP2 MSTORE PUSH1 0x4 ADD PUSH2 0x1CD SWAP1 PUSH2 0xCFF JUMP JUMPDEST PUSH1 0x40 MLOAD DUP1 SWAP2 SUB SWAP1 REVERT JUMPDEST PUSH2 0x1E0 DUP5 DUP3 PUSH2 0x6AE JUMP JUMPDEST PUSH1 0x0 DUP1 DUP5 PUSH20 0xFFFFFFFFFFFFFFFFFFFFFFFFFFFFFFFFFFFFFFFF AND PUSH20 0xFFFFFFFFFFFFFFFFFFFFFFFFFFFFFFFFFFFFFFFF AND DUP2 MSTORE PUSH1 0x20 ADD SWAP1 DUP2 MSTORE PUSH1 0x20 ADD PUSH1 0x0 KECCAK256 DUP3 SWAP1 DUP1 PUSH1 0x1 DUP2 SLOAD ADD DUP1 DUP3 SSTORE DUP1 SWAP2 POP POP PUSH1 0x1 SWAP1 SUB SWAP1 PUSH1 0x0 MSTORE PUSH1 0x20 PUSH1 0x0 KECCAK256 ADD PUSH1 0x0 SWAP1 SWAP2 SWAP1 SWAP2 SWAP1 SWAP2 POP SWAP1 DUP2 PUSH2 0x250 SWAP2 SWAP1 PUSH2 0xF90 JUMP JUMPDEST POP DUP3 PUSH20 0xFFFFFFFFFFFFFFFFFFFFFFFFFFFFFFFFFFFFFFFF AND DUP5 PUSH20 0xFFFFFFFFFFFFFFFFFFFFFFFFFFFFFFFFFFFFFFFF AND PUSH32 0xC1340F88823FD1A662CD09EAC20F01C2806A387AC043BB0EA8C47B72135BBC4F DUP5 PUSH1 0x40 MLOAD PUSH2 0x2AE SWAP2 SWAP1 PUSH2 0xD58 JUMP JUMPDEST PUSH1 0x40 MLOAD DUP1 SWAP2 SUB SWAP1 LOG3 POP POP POP POP JUMP JUMPDEST PUSH1 0x0 DUP1 DUP4 PUSH20 0xFFFFFFFFFFFFFFFFFFFFFFFFFFFFFFFFFFFFFFFF AND PUSH20 0xFFFFFFFFFFFFFFFFFFFFFFFFFFFFFFFFFFFFFFFF AND DUP2 MSTORE PUSH1 0x20 ADD SWAP1 DUP2 MSTORE PUSH1 0x20 ADD PUSH1 0x0 KECCAK256 DUP2 SWAP1 DUP1 PUSH1 0x1 DUP2 SLOAD ADD DUP1 DUP3 SSTORE DUP1 SWAP2 POP POP PUSH1 0x1 SWAP1 SUB SWAP1 PUSH1 0x0 MSTORE PUSH1 0x20 PUSH1 0x0 KECCAK256 ADD PUSH1 0x0 SWAP1 SWAP2 SWAP1 SWAP2 SWAP1 SWAP2 POP SWAP1 DUP2 PUSH2 0x32C SWAP2 SWAP1 PUSH2 0xF90 JUMP JUMPDEST POP DUP2 PUSH20 0xFFFFFFFFFFFFFFFFFFFFFFFFFFFFFFFFFFFFFFFF AND PUSH32 0x9D3D1943D35D4F7F2AEA4530C02E43FE3BE54E0BC5E79DFBB2A74D9CD2F06D51 DUP3 PUSH1 0x40 MLOAD PUSH2 0x373 SWAP2 SWAP1 PUSH2 0xD58 JUMP JUMPDEST PUSH1 0x40 MLOAD DUP1 SWAP2 SUB SWAP1 LOG2 POP POP JUMP JUMPDEST PUSH1 0x60 PUSH1 0x0 DUP1 DUP4 PUSH20 0xFFFFFFFFFFFFFFFFFFFFFFFFFFFFFFFFFFFFFFFF AND PUSH20 0xFFFFFFFFFFFFFFFFFFFFFFFFFFFFFFFFFFFFFFFF AND DUP2 MSTORE PUSH1 0x20 ADD SWAP1 DUP2 MSTORE PUSH1 0x20 ADD PUSH1 0x0 KECCAK256 DUP1 SLOAD DUP1 PUSH1 0x20 MUL PUSH1 0x20 ADD PUSH1 0x40 MLOAD SWAP1 DUP2 ADD PUSH1 0x40 MSTORE DUP1 SWAP3 SWAP2 SWAP1 DUP2 DUP2 MSTORE PUSH1 0x20 ADD PUSH1 0x0 SWAP1 JUMPDEST DUP3 DUP3 LT ISZERO PUSH2 0x48B JUMPI DUP4 DUP3 SWAP1 PUSH1 0x0 MSTORE PUSH1 0x20 PUSH1 0x0 KECCAK256 ADD DUP1 SLOAD PUSH2 0x3FE SWAP1 PUSH2 0xDA9 JUMP JUMPDEST DUP1 PUSH1 0x1F ADD PUSH1 0x20 DUP1 SWAP2 DIV MUL PUSH1 0x20 ADD PUSH1 0x40 MLOAD SWAP1 DUP2 ADD PUSH1 0x40 MSTORE DUP1 SWAP3 SWAP2 SWAP1 DUP2 DUP2 MSTORE PUSH1 0x20 ADD DUP3 DUP1 SLOAD PUSH2 0x42A SWAP1 PUSH2 0xDA9 JUMP JUMPDEST DUP1 ISZERO PUSH2 0x477 JUMPI DUP1 PUSH1 0x1F LT PUSH2 0x44C JUMPI PUSH2 0x100 DUP1 DUP4 SLOAD DIV MUL DUP4 MSTORE SWAP2 PUSH1 0x20 ADD SWAP2 PUSH2 0x477 JUMP JUMPDEST DUP3 ADD SWAP2 SWAP1 PUSH1 0x0 MSTORE PUSH1 0x20 PUSH1 0x0 KECCAK256 SWAP1 JUMPDEST DUP2 SLOAD DUP2 MSTORE SWAP1 PUSH1 0x1 ADD SWAP1 PUSH1 0x20 ADD DUP1 DUP4 GT PUSH2 0x45A JUMPI DUP3 SWAP1 SUB PUSH1 0x1F AND DUP3 ADD SWAP2 JUMPDEST POP POP POP POP POP DUP2 MSTORE PUSH1 0x20 ADD SWAP1 PUSH1 0x1 ADD SWAP1 PUSH2 0x3DF JUMP JUMPDEST POP POP POP POP SWAP1 POP SWAP2 SWAP1 POP JUMP JUMPDEST PUSH1 0x0 DUP1 PUSH32 0xFFFFFFFFFFFFFFFFFFFFFFFFFFFFFFFFFFFFFFFFFFFFFFFFFFFFFFFFFFFFFFFF SWAP1 POP PUSH1 0x0 DUP1 PUSH1 0x0 DUP7 PUSH20 0xFFFFFFFFFFFFFFFFFFFFFFFFFFFFFFFFFFFFFFFF AND PUSH20 0xFFFFFFFFFFFFFFFFFFFFFFFFFFFFFFFFFFFFFFFF AND DUP2 MSTORE PUSH1 0x20 ADD SWAP1 DUP2 MSTORE PUSH1 0x20 ADD PUSH1 0x0 KECCAK256 DUP1 SLOAD DUP1 PUSH1 0x20 MUL PUSH1 0x20 ADD PUSH1 0x40 MLOAD SWAP1 DUP2 ADD PUSH1 0x40 MSTORE DUP1 SWAP3 SWAP2 SWAP1 DUP2 DUP2 MSTORE PUSH1 0x20 ADD PUSH1 0x0 SWAP1 JUMPDEST DUP3 DUP3 LT ISZERO PUSH2 0x5C8 JUMPI DUP4 DUP3 SWAP1 PUSH1 0x0 MSTORE PUSH1 0x20 PUSH1 0x0 KECCAK256 ADD DUP1 SLOAD PUSH2 0x53B SWAP1 PUSH2 0xDA9 JUMP JUMPDEST DUP1 PUSH1 0x1F ADD PUSH1 0x20 DUP1 SWAP2 DIV MUL PUSH1 0x20 ADD PUSH1 0x40 MLOAD SWAP1 DUP2 ADD PUSH1 0x40 MSTORE DUP1 SWAP3 SWAP2 SWAP1 DUP2 DUP2 MSTORE PUSH1 0x20 ADD DUP3 DUP1 SLOAD PUSH2 0x567 SWAP1 PUSH2 0xDA9 JUMP JUMPDEST DUP1 ISZERO PUSH2 0x5B4 JUMPI DUP1 PUSH1 0x1F LT PUSH2 0x589 JUMPI PUSH2 0x100 DUP1 DUP4 SLOAD DIV MUL DUP4 MSTORE SWAP2 PUSH1 0x20 ADD SWAP2 PUSH2 0x5B4 JUMP JUMPDEST DUP3 ADD SWAP2 SWAP1 PUSH1 0x0 MSTORE PUSH1 0x20 PUSH1 0x0 KECCAK256 SWAP1 JUMPDEST DUP2 SLOAD DUP2 MSTORE SWAP1 PUSH1 0x1 ADD SWAP1 PUSH1 0x20 ADD DUP1 DUP4 GT PUSH2 0x597 JUMPI DUP3 SWAP1 SUB PUSH1 0x1F AND DUP3 ADD SWAP2 JUMPDEST POP POP POP POP POP DUP2 MSTORE PUSH1 0x20 ADD SWAP1 PUSH1 0x1 ADD SWAP1 PUSH2 0x51C JUMP JUMPDEST POP POP POP POP SWAP1 POP PUSH1 0x0 JUMPDEST PUSH1 0x0 DUP1 DUP8 PUSH20 0xFFFFFFFFFFFFFFFFFFFFFFFFFFFFFFFFFFFFFFFF AND PUSH20 0xFFFFFFFFFFFFFFFFFFFFFFFFFFFFFFFFFFFFFFFF AND DUP2 MSTORE PUSH1 0x20 ADD SWAP1 DUP2 MSTORE PUSH1 0x20 ADD PUSH1 0x0 KECCAK256 DUP1 SLOAD SWAP1 POP DUP2 LT ISZERO PUSH2 0x6A2 JUMPI DUP2 DUP2 DUP2 MLOAD DUP2 LT PUSH2 0x62D JUMPI PUSH2 0x62C PUSH2 0x1062 JUMP JUMPDEST JUMPDEST PUSH1 0x20 MUL PUSH1 0x20 ADD ADD MLOAD PUSH1 0x40 MLOAD PUSH1 0x20 ADD PUSH2 0x645 SWAP2 SWAP1 PUSH2 0x10CD JUMP JUMPDEST PUSH1 0x40 MLOAD PUSH1 0x20 DUP2 DUP4 SUB SUB DUP2 MSTORE SWAP1 PUSH1 0x40 MSTORE DUP1 MLOAD SWAP1 PUSH1 0x20 ADD KECCAK256 DUP6 PUSH1 0x40 MLOAD PUSH1 0x20 ADD PUSH2 0x66C SWAP2 SWAP1 PUSH2 0x10CD JUMP JUMPDEST PUSH1 0x40 MLOAD PUSH1 0x20 DUP2 DUP4 SUB SUB DUP2 MSTORE SWAP1 PUSH1 0x40 MSTORE DUP1 MLOAD SWAP1 PUSH1 0x20 ADD KECCAK256 SUB PUSH2 0x68F JUMPI DUP1 SWAP3 POP PUSH2 0x6A2 JUMP JUMPDEST DUP1 DUP1 PUSH2 0x69A SWAP1 PUSH2 0x1113 JUMP JUMPDEST SWAP2 POP POP PUSH2 0x5D1 JUMP JUMPDEST POP DUP2 SWAP3 POP POP POP SWAP3 SWAP2 POP POP JUMP JUMPDEST PUSH1 0x0 PUSH1 0x1 PUSH1 0x0 DUP1 DUP6 PUSH20 0xFFFFFFFFFFFFFFFFFFFFFFFFFFFFFFFFFFFFFFFF AND PUSH20 0xFFFFFFFFFFFFFFFFFFFFFFFFFFFFFFFFFFFFFFFF AND DUP2 MSTORE PUSH1 0x20 ADD SWAP1 DUP2 MSTORE PUSH1 0x20 ADD PUSH1 0x0 KECCAK256 DUP1 SLOAD SWAP1 POP PUSH2 0x6FE SWAP2 SWAP1 PUSH2 0x115B JUMP JUMPDEST SWAP1 POP PUSH1 0x0 DUP1 DUP5 PUSH20 0xFFFFFFFFFFFFFFFFFFFFFFFFFFFFFFFFFFFFFFFF AND PUSH20 0xFFFFFFFFFFFFFFFFFFFFFFFFFFFFFFFFFFFFFFFF AND DUP2 MSTORE PUSH1 0x20 ADD SWAP1 DUP2 MSTORE PUSH1 0x20 ADD PUSH1 0x0 KECCAK256 DUP2 DUP2 SLOAD DUP2 LT PUSH2 0x750 JUMPI PUSH2 0x74F PUSH2 0x1062 JUMP JUMPDEST JUMPDEST SWAP1 PUSH1 0x0 MSTORE PUSH1 0x20 PUSH1 0x0 KECCAK256 ADD PUSH1 0x0 DUP1 DUP6 PUSH20 0xFFFFFFFFFFFFFFFFFFFFFFFFFFFFFFFFFFFFFFFF AND PUSH20 0xFFFFFFFFFFFFFFFFFFFFFFFFFFFFFFFFFFFFFFFF AND DUP2 MSTORE PUSH1 0x20 ADD SWAP1 DUP2 MSTORE PUSH1 0x20 ADD PUSH1 0x0 KECCAK256 DUP4 DUP2 SLOAD DUP2 LT PUSH2 0x7AA JUMPI PUSH2 0x7A9 PUSH2 0x1062 JUMP JUMPDEST JUMPDEST SWAP1 PUSH1 0x0 MSTORE PUSH1 0x20 PUSH1 0x0 KECCAK256 ADD SWAP1 DUP2 PUSH2 0x7C0 SWAP2 SWAP1 PUSH2 0x11BA JUMP JUMPDEST POP PUSH1 0x0 DUP1 DUP5 PUSH20 0xFFFFFFFFFFFFFFFFFFFFFFFFFFFFFFFFFFFFFFFF AND PUSH20 0xFFFFFFFFFFFFFFFFFFFFFFFFFFFFFFFFFFFFFFFF AND DUP2 MSTORE PUSH1 0x20 ADD SWAP1 DUP2 MSTORE PUSH1 0x20 ADD PUSH1 0x0 KECCAK256 DUP1 SLOAD DUP1 PUSH2 0x80F JUMPI PUSH2 0x80E PUSH2 0x12A2 JUMP JUMPDEST JUMPDEST PUSH1 0x1 SWAP1 SUB DUP2 DUP2 SWAP1 PUSH1 0x0 MSTORE PUSH1 0x20 PUSH1 0x0 KECCAK256 ADD PUSH1 0x0 PUSH2 0x82B SWAP2 SWAP1 PUSH2 0x832 JUMP JUMPDEST SWAP1 SSTORE POP POP POP JUMP JUMPDEST POP DUP1 SLOAD PUSH2 0x83E SWAP1 PUSH2 0xDA9 JUMP JUMPDEST PUSH1 0x0 DUP3 SSTORE DUP1 PUSH1 0x1F LT PUSH2 0x850 JUMPI POP PUSH2 0x86F JUMP JUMPDEST PUSH1 0x1F ADD PUSH1 0x20 SWAP1 DIV SWAP1 PUSH1 0x0 MSTORE PUSH1 0x20 PUSH1 0x0 KECCAK256 SWAP1 DUP2 ADD SWAP1 PUSH2 0x86E SWAP2 SWAP1 PUSH2 0x872 JUMP JUMPDEST JUMPDEST POP JUMP JUMPDEST JUMPDEST DUP1 DUP3 GT ISZERO PUSH2 0x88B JUMPI PUSH1 0x0 DUP2 PUSH1 0x0 SWAP1 SSTORE POP PUSH1 0x1 ADD PUSH2 0x873 JUMP JUMPDEST POP SWAP1 JUMP JUMPDEST PUSH1 0x0 PUSH1 0x40 MLOAD SWAP1 POP SWAP1 JUMP JUMPDEST PUSH1 0x0 DUP1 REVERT JUMPDEST PUSH1 0x0 DUP1 REVERT JUMPDEST PUSH1 0x0 PUSH20 0xFFFFFFFFFFFFFFFFFFFFFFFFFFFFFFFFFFFFFFFF DUP3 AND SWAP1 POP SWAP2 SWAP1 POP JUMP JUMPDEST PUSH1 0x0 PUSH2 0x8CE DUP3 PUSH2 0x8A3 JUMP JUMPDEST SWAP1 POP SWAP2 SWAP1 POP JUMP JUMPDEST PUSH2 0x8DE DUP2 PUSH2 0x8C3 JUMP JUMPDEST DUP2 EQ PUSH2 0x8E9 JUMPI PUSH1 0x0 DUP1 REVERT JUMPDEST POP JUMP JUMPDEST PUSH1 0x0 DUP2 CALLDATALOAD SWAP1 POP PUSH2 0x8FB DUP2 PUSH2 0x8D5 JUMP JUMPDEST SWAP3 SWAP2 POP POP JUMP JUMPDEST PUSH1 0x0 DUP1 REVERT JUMPDEST PUSH1 0x0 DUP1 REVERT JUMPDEST PUSH1 0x0 PUSH1 0x1F NOT PUSH1 0x1F DUP4 ADD AND SWAP1 POP SWAP2 SWAP1 POP JUMP JUMPDEST PUSH32 0x4E487B7100000000000000000000000000000000000000000000000000000000 PUSH1 0x0 MSTORE PUSH1 0x41 PUSH1 0x4 MSTORE PUSH1 0x24 PUSH1 0x0 REVERT JUMPDEST PUSH2 0x954 DUP3 PUSH2 0x90B JUMP JUMPDEST DUP2 ADD DUP2 DUP2 LT PUSH8 0xFFFFFFFFFFFFFFFF DUP3 GT OR ISZERO PUSH2 0x973 JUMPI PUSH2 0x972 PUSH2 0x91C JUMP JUMPDEST JUMPDEST DUP1 PUSH1 0x40 MSTORE POP POP POP JUMP JUMPDEST PUSH1 0x0 PUSH2 0x986 PUSH2 0x88F JUMP JUMPDEST SWAP1 POP PUSH2 0x992 DUP3 DUP3 PUSH2 0x94B JUMP JUMPDEST SWAP2 SWAP1 POP JUMP JUMPDEST PUSH1 0x0 PUSH8 0xFFFFFFFFFFFFFFFF DUP3 GT ISZERO PUSH2 0x9B2 JUMPI PUSH2 0x9B1 PUSH2 0x91C JUMP JUMPDEST JUMPDEST PUSH2 0x9BB DUP3 PUSH2 0x90B JUMP JUMPDEST SWAP1 POP PUSH1 0x20 DUP2 ADD SWAP1 POP SWAP2 SWAP1 POP JUMP JUMPDEST DUP3 DUP2 DUP4 CALLDATACOPY PUSH1 0x0 DUP4 DUP4 ADD MSTORE POP POP POP JUMP JUMPDEST PUSH1 0x0 PUSH2 0x9EA PUSH2 0x9E5 DUP5 PUSH2 0x997 JUMP JUMPDEST PUSH2 0x97C JUMP JUMPDEST SWAP1 POP DUP3 DUP2 MSTORE PUSH1 0x20 DUP2 ADD DUP5 DUP5 DUP5 ADD GT ISZERO PUSH2 0xA06 JUMPI PUSH2 0xA05 PUSH2 0x906 JUMP JUMPDEST JUMPDEST PUSH2 0xA11 DUP5 DUP3 DUP6 PUSH2 0x9C8 JUMP JUMPDEST POP SWAP4 SWAP3 POP POP POP JUMP JUMPDEST PUSH1 0x0 DUP3 PUSH1 0x1F DUP4 ADD SLT PUSH2 0xA2E JUMPI PUSH2 0xA2D PUSH2 0x901 JUMP JUMPDEST JUMPDEST DUP2 CALLDATALOAD PUSH2 0xA3E DUP5 DUP3 PUSH1 0x20 DUP7 ADD PUSH2 0x9D7 JUMP JUMPDEST SWAP2 POP POP SWAP3 SWAP2 POP POP JUMP JUMPDEST PUSH1 0x0 DUP1 PUSH1 0x40 DUP4 DUP6 SUB SLT ISZERO PUSH2 0xA5E JUMPI PUSH2 0xA5D PUSH2 0x899 JUMP JUMPDEST JUMPDEST PUSH1 0x0 PUSH2 0xA6C DUP6 DUP3 DUP7 ADD PUSH2 0x8EC JUMP JUMPDEST SWAP3 POP POP PUSH1 0x20 DUP4 ADD CALLDATALOAD PUSH8 0xFFFFFFFFFFFFFFFF DUP2 GT ISZERO PUSH2 0xA8D JUMPI PUSH2 0xA8C PUSH2 0x89E JUMP JUMPDEST JUMPDEST PUSH2 0xA99 DUP6 DUP3 DUP7 ADD PUSH2 0xA19 JUMP JUMPDEST SWAP2 POP POP SWAP3 POP SWAP3 SWAP1 POP JUMP JUMPDEST PUSH1 0x0 DUP1 PUSH1 0x0 PUSH1 0x60 DUP5 DUP7 SUB SLT ISZERO PUSH2 0xABC JUMPI PUSH2 0xABB PUSH2 0x899 JUMP JUMPDEST JUMPDEST PUSH1 0x0 PUSH2 0xACA DUP7 DUP3 DUP8 ADD PUSH2 0x8EC JUMP JUMPDEST SWAP4 POP POP PUSH1 0x20 PUSH2 0xADB DUP7 DUP3 DUP8 ADD PUSH2 0x8EC JUMP JUMPDEST SWAP3 POP POP PUSH1 0x40 DUP5 ADD CALLDATALOAD PUSH8 0xFFFFFFFFFFFFFFFF DUP2 GT ISZERO PUSH2 0xAFC JUMPI PUSH2 0xAFB PUSH2 0x89E JUMP JUMPDEST JUMPDEST PUSH2 0xB08 DUP7 DUP3 DUP8 ADD PUSH2 0xA19 JUMP JUMPDEST SWAP2 POP POP SWAP3 POP SWAP3 POP SWAP3 JUMP JUMPDEST PUSH1 0x0 PUSH1 0x20 DUP3 DUP5 SUB SLT ISZERO PUSH2 0xB28 JUMPI PUSH2 0xB27 PUSH2 0x899 JUMP JUMPDEST JUMPDEST PUSH1 0x0 PUSH2 0xB36 DUP5 DUP3 DUP6 ADD PUSH2 0x8EC JUMP JUMPDEST SWAP2 POP POP SWAP3 SWAP2 POP POP JUMP JUMPDEST PUSH1 0x0 DUP2 MLOAD SWAP1 POP SWAP2 SWAP1 POP JUMP JUMPDEST PUSH1 0x0 DUP3 DUP3 MSTORE PUSH1 0x20 DUP3 ADD SWAP1 POP SWAP3 SWAP2 POP POP JUMP JUMPDEST PUSH1 0x0 DUP2 SWAP1 POP PUSH1 0x20 DUP3 ADD SWAP1 POP SWAP2 SWAP1 POP JUMP JUMPDEST PUSH1 0x0 DUP2 MLOAD SWAP1 POP SWAP2 SWAP1 POP JUMP JUMPDEST PUSH1 0x0 DUP3 DUP3 MSTORE PUSH1 0x20 DUP3 ADD SWAP1 POP SWAP3 SWAP2 POP POP JUMP JUMPDEST PUSH1 0x0 JUMPDEST DUP4 DUP2 LT ISZERO PUSH2 0xBA5 JUMPI DUP1 DUP3 ADD MLOAD DUP2 DUP5 ADD MSTORE PUSH1 0x20 DUP2 ADD SWAP1 POP PUSH2 0xB8A JUMP JUMPDEST PUSH1 0x0 DUP5 DUP5 ADD MSTORE POP POP POP POP JUMP JUMPDEST PUSH1 0x0 PUSH2 0xBBC DUP3 PUSH2 0xB6B JUMP JUMPDEST PUSH2 0xBC6 DUP2 DUP6 PUSH2 0xB76 JUMP JUMPDEST SWAP4 POP PUSH2 0xBD6 DUP2 DUP6 PUSH1 0x20 DUP7 ADD PUSH2 0xB87 JUMP JUMPDEST PUSH2 0xBDF DUP2 PUSH2 0x90B JUMP JUMPDEST DUP5 ADD SWAP2 POP POP SWAP3 SWAP2 POP POP JUMP JUMPDEST PUSH1 0x0 PUSH2 0xBF6 DUP4 DUP4 PUSH2 0xBB1 JUMP JUMPDEST SWAP1 POP SWAP3 SWAP2 POP POP JUMP JUMPDEST PUSH1 0x0 PUSH1 0x20 DUP3 ADD SWAP1 POP SWAP2 SWAP1 POP JUMP JUMPDEST PUSH1 0x0 PUSH2 0xC16 DUP3 PUSH2 0xB3F JUMP JUMPDEST PUSH2 0xC20 DUP2 DUP6 PUSH2 0xB4A JUMP JUMPDEST SWAP4 POP DUP4 PUSH1 0x20 DUP3 MUL DUP6 ADD PUSH2 0xC32 DUP6 PUSH2 0xB5B JUMP JUMPDEST DUP1 PUSH1 0x0 JUMPDEST DUP6 DUP2 LT ISZERO PUSH2 0xC6E JUMPI DUP5 DUP5 SUB DUP10 MSTORE DUP2 MLOAD PUSH2 0xC4F DUP6 DUP3 PUSH2 0xBEA JUMP JUMPDEST SWAP5 POP PUSH2 0xC5A DUP4 PUSH2 0xBFE JUMP JUMPDEST SWAP3 POP PUSH1 0x20 DUP11 ADD SWAP10 POP POP PUSH1 0x1 DUP2 ADD SWAP1 POP PUSH2 0xC36 JUMP JUMPDEST POP DUP3 SWAP8 POP DUP8 SWAP6 POP POP POP POP POP POP SWAP3 SWAP2 POP POP JUMP JUMPDEST PUSH1 0x0 PUSH1 0x20 DUP3 ADD SWAP1 POP DUP2 DUP2 SUB PUSH1 0x0 DUP4 ADD MSTORE PUSH2 0xC9A DUP2 DUP5 PUSH2 0xC0B JUMP JUMPDEST SWAP1 POP SWAP3 SWAP2 POP POP JUMP JUMPDEST PUSH1 0x0 DUP3 DUP3 MSTORE PUSH1 0x20 DUP3 ADD SWAP1 POP SWAP3 SWAP2 POP POP JUMP JUMPDEST PUSH32 0x596F7520646F6E277420686176652074686973206974656D2E00000000000000 PUSH1 0x0 DUP3 ADD MSTORE POP JUMP JUMPDEST PUSH1 0x0 PUSH2 0xCE9 PUSH1 0x19 DUP4 PUSH2 0xCA2 JUMP JUMPDEST SWAP2 POP PUSH2 0xCF4 DUP3 PUSH2 0xCB3 JUMP JUMPDEST PUSH1 0x20 DUP3 ADD SWAP1 POP SWAP2 SWAP1 POP JUMP JUMPDEST PUSH1 0x0 PUSH1 0x20 DUP3 ADD SWAP1 POP DUP2 DUP2 SUB PUSH1 0x0 DUP4 ADD MSTORE PUSH2 0xD18 DUP2 PUSH2 0xCDC JUMP JUMPDEST SWAP1 POP SWAP2 SWAP1 POP JUMP JUMPDEST PUSH1 0x0 PUSH2 0xD2A DUP3 PUSH2 0xB6B JUMP JUMPDEST PUSH2 0xD34 DUP2 DUP6 PUSH2 0xCA2 JUMP JUMPDEST SWAP4 POP PUSH2 0xD44 DUP2 DUP6 PUSH1 0x20 DUP7 ADD PUSH2 0xB87 JUMP JUMPDEST PUSH2 0xD4D DUP2 PUSH2 0x90B JUMP JUMPDEST DUP5 ADD SWAP2 POP POP SWAP3 SWAP2 POP POP JUMP JUMPDEST PUSH1 0x0 PUSH1 0x20 DUP3 ADD SWAP1 POP DUP2 DUP2 SUB PUSH1 0x0 DUP4 ADD MSTORE PUSH2 0xD72 DUP2 DUP5 PUSH2 0xD1F JUMP JUMPDEST SWAP1 POP SWAP3 SWAP2 POP POP JUMP JUMPDEST PUSH32 0x4E487B7100000000000000000000000000000000000000000000000000000000 PUSH1 0x0 MSTORE PUSH1 0x22 PUSH1 0x4 MSTORE PUSH1 0x24 PUSH1 0x0 REVERT JUMPDEST PUSH1 0x0 PUSH1 0x2 DUP3 DIV SWAP1 POP PUSH1 0x1 DUP3 AND DUP1 PUSH2 0xDC1 JUMPI PUSH1 0x7F DUP3 AND SWAP2 POP JUMPDEST PUSH1 0x20 DUP3 LT DUP2 SUB PUSH2 0xDD4 JUMPI PUSH2 0xDD3 PUSH2 0xD7A JUMP JUMPDEST JUMPDEST POP SWAP2 SWAP1 POP JUMP JUMPDEST PUSH1 0x0 DUP2 SWAP1 POP DUP2 PUSH1 0x0 MSTORE PUSH1 0x20 PUSH1 0x0 KECCAK256 SWAP1 POP SWAP2 SWAP1 POP JUMP JUMPDEST PUSH1 0x0 PUSH1 0x20 PUSH1 0x1F DUP4 ADD DIV SWAP1 POP SWAP2 SWAP1 POP JUMP JUMPDEST PUSH1 0x0 DUP3 DUP3 SHL SWAP1 POP SWAP3 SWAP2 POP POP JUMP JUMPDEST PUSH1 0x0 PUSH1 0x8 DUP4 MUL PUSH2 0xE3C PUSH32 0xFFFFFFFFFFFFFFFFFFFFFFFFFFFFFFFFFFFFFFFFFFFFFFFFFFFFFFFFFFFFFFFF DUP3 PUSH2 0xDFF JUMP JUMPDEST PUSH2 0xE46 DUP7 DUP4 PUSH2 0xDFF JUMP JUMPDEST SWAP6 POP DUP1 NOT DUP5 AND SWAP4 POP DUP1 DUP7 AND DUP5 OR SWAP3 POP POP POP SWAP4 SWAP3 POP POP POP JUMP JUMPDEST PUSH1 0x0 DUP2 SWAP1 POP SWAP2 SWAP1 POP JUMP JUMPDEST PUSH1 0x0 DUP2 SWAP1 POP SWAP2 SWAP1 POP JUMP JUMPDEST PUSH1 0x0 PUSH2 0xE8D PUSH2 0xE88 PUSH2 0xE83 DUP5 PUSH2 0xE5E JUMP JUMPDEST PUSH2 0xE68 JUMP JUMPDEST PUSH2 0xE5E JUMP JUMPDEST SWAP1 POP SWAP2 SWAP1 POP JUMP JUMPDEST PUSH1 0x0 DUP2 SWAP1 POP SWAP2 SWAP1 POP JUMP JUMPDEST PUSH2 0xEA7 DUP4 PUSH2 0xE72 JUMP JUMPDEST PUSH2 0xEBB PUSH2 0xEB3 DUP3 PUSH2 0xE94 JUMP JUMPDEST DUP5 DUP5 SLOAD PUSH2 0xE0C JUMP JUMPDEST DUP3 SSTORE POP POP POP POP JUMP JUMPDEST PUSH1 0x0 SWAP1 JUMP JUMPDEST PUSH2 0xED0 PUSH2 0xEC3 JUMP JUMPDEST PUSH2 0xEDB DUP2 DUP5 DUP5 PUSH2 0xE9E JUMP JUMPDEST POP POP POP JUMP JUMPDEST JUMPDEST DUP2 DUP2 LT ISZERO PUSH2 0xEFF JUMPI PUSH2 0xEF4 PUSH1 0x0 DUP3 PUSH2 0xEC8 JUMP JUMPDEST PUSH1 0x1 DUP2 ADD SWAP1 POP PUSH2 0xEE1 JUMP JUMPDEST POP POP JUMP JUMPDEST PUSH1 0x1F DUP3 GT ISZERO PUSH2 0xF44 JUMPI PUSH2 0xF15 DUP2 PUSH2 0xDDA JUMP JUMPDEST PUSH2 0xF1E DUP5 PUSH2 0xDEF JUMP JUMPDEST DUP2 ADD PUSH1 0x20 DUP6 LT ISZERO PUSH2 0xF2D JUMPI DUP2 SWAP1 POP JUMPDEST PUSH2 0xF41 PUSH2 0xF39 DUP6 PUSH2 0xDEF JUMP JUMPDEST DUP4 ADD DUP3 PUSH2 0xEE0 JUMP JUMPDEST POP POP JUMPDEST POP POP POP JUMP JUMPDEST PUSH1 0x0 DUP3 DUP3 SHR SWAP1 POP SWAP3 SWAP2 POP POP JUMP JUMPDEST PUSH1 0x0 PUSH2 0xF67 PUSH1 0x0 NOT DUP5 PUSH1 0x8 MUL PUSH2 0xF49 JUMP JUMPDEST NOT DUP1 DUP4 AND SWAP2 POP POP SWAP3 SWAP2 POP POP JUMP JUMPDEST PUSH1 0x0 PUSH2 0xF80 DUP4 DUP4 PUSH2 0xF56 JUMP JUMPDEST SWAP2 POP DUP3 PUSH1 0x2 MUL DUP3 OR SWAP1 POP SWAP3 SWAP2 POP POP JUMP JUMPDEST PUSH2 0xF99 DUP3 PUSH2 0xB6B JUMP JUMPDEST PUSH8 0xFFFFFFFFFFFFFFFF DUP2 GT ISZERO PUSH2 0xFB2 JUMPI PUSH2 0xFB1 PUSH2 0x91C JUMP JUMPDEST JUMPDEST PUSH2 0xFBC DUP3 SLOAD PUSH2 0xDA9 JUMP JUMPDEST PUSH2 0xFC7 DUP3 DUP3 DUP6 PUSH2 0xF03 JUMP JUMPDEST PUSH1 0x0 PUSH1 0x20 SWAP1 POP PUSH1 0x1F DUP4 GT PUSH1 0x1 DUP2 EQ PUSH2 0xFFA JUMPI PUSH1 0x0 DUP5 ISZERO PUSH2 0xFE8 JUMPI DUP3 DUP8 ADD MLOAD SWAP1 POP JUMPDEST PUSH2 0xFF2 DUP6 DUP3 PUSH2 0xF74 JUMP JUMPDEST DUP7 SSTORE POP PUSH2 0x105A JUMP JUMPDEST PUSH1 0x1F NOT DUP5 AND PUSH2 0x1008 DUP7 PUSH2 0xDDA JUMP JUMPDEST PUSH1 0x0 JUMPDEST DUP3 DUP2 LT ISZERO PUSH2 0x1030 JUMPI DUP5 DUP10 ADD MLOAD DUP3 SSTORE PUSH1 0x1 DUP3 ADD SWAP2 POP PUSH1 0x20 DUP6 ADD SWAP5 POP PUSH1 0x20 DUP2 ADD SWAP1 POP PUSH2 0x100B JUMP JUMPDEST DUP7 DUP4 LT ISZERO PUSH2 0x104D JUMPI DUP5 DUP10 ADD MLOAD PUSH2 0x1049 PUSH1 0x1F DUP10 AND DUP3 PUSH2 0xF56 JUMP JUMPDEST DUP4 SSTORE POP JUMPDEST PUSH1 0x1 PUSH1 0x2 DUP9 MUL ADD DUP9 SSTORE POP POP POP JUMPDEST POP POP POP POP POP POP JUMP JUMPDEST PUSH32 0x4E487B7100000000000000000000000000000000000000000000000000000000 PUSH1 0x0 MSTORE PUSH1 0x32 PUSH1 0x4 MSTORE PUSH1 0x24 PUSH1 0x0 REVERT JUMPDEST PUSH1 0x0 DUP2 SWAP1 POP SWAP3 SWAP2 POP POP JUMP JUMPDEST PUSH1 0x0 PUSH2 0x10A7 DUP3 PUSH2 0xB6B JUMP JUMPDEST PUSH2 0x10B1 DUP2 DUP6 PUSH2 0x1091 JUMP JUMPDEST SWAP4 POP PUSH2 0x10C1 DUP2 DUP6 PUSH1 0x20 DUP7 ADD PUSH2 0xB87 JUMP JUMPDEST DUP1 DUP5 ADD SWAP2 POP POP SWAP3 SWAP2 POP POP JUMP JUMPDEST PUSH1 0x0 PUSH2 0x10D9 DUP3 DUP5 PUSH2 0x109C JUMP JUMPDEST SWAP2 POP DUP2 SWAP1 POP SWAP3 SWAP2 POP POP JUMP JUMPDEST PUSH32 0x4E487B7100000000000000000000000000000000000000000000000000000000 PUSH1 0x0 MSTORE PUSH1 0x11 PUSH1 0x4 MSTORE PUSH1 0x24 PUSH1 0x0 REVERT JUMPDEST PUSH1 0x0 PUSH2 0x111E DUP3 PUSH2 0xE5E JUMP JUMPDEST SWAP2 POP PUSH32 0xFFFFFFFFFFFFFFFFFFFFFFFFFFFFFFFFFFFFFFFFFFFFFFFFFFFFFFFFFFFFFFFF DUP3 SUB PUSH2 0x1150 JUMPI PUSH2 0x114F PUSH2 0x10E4 JUMP JUMPDEST JUMPDEST PUSH1 0x1 DUP3 ADD SWAP1 POP SWAP2 SWAP1 POP JUMP JUMPDEST PUSH1 0x0 PUSH2 0x1166 DUP3 PUSH2 0xE5E JUMP JUMPDEST SWAP2 POP PUSH2 0x1171 DUP4 PUSH2 0xE5E JUMP JUMPDEST SWAP3 POP DUP3 DUP3 SUB SWAP1 POP DUP2 DUP2 GT ISZERO PUSH2 0x1189 JUMPI PUSH2 0x1188 PUSH2 0x10E4 JUMP JUMPDEST JUMPDEST SWAP3 SWAP2 POP POP JUMP JUMPDEST PUSH1 0x0 DUP2 SLOAD SWAP1 POP PUSH2 0x119E DUP2 PUSH2 0xDA9 JUMP JUMPDEST SWAP1 POP SWAP2 SWAP1 POP JUMP JUMPDEST PUSH1 0x0 DUP2 SWAP1 POP DUP2 PUSH1 0x0 MSTORE PUSH1 0x20 PUSH1 0x0 KECCAK256 SWAP1 POP SWAP2 SWAP1 POP JUMP JUMPDEST DUP2 DUP2 SUB PUSH2 0x11C8 JUMPI POP POP PUSH2 0x12A0 JUMP JUMPDEST PUSH2 0x11D1 DUP3 PUSH2 0x118F JUMP JUMPDEST PUSH8 0xFFFFFFFFFFFFFFFF DUP2 GT ISZERO PUSH2 0x11EA JUMPI PUSH2 0x11E9 PUSH2 0x91C JUMP JUMPDEST JUMPDEST PUSH2 0x11F4 DUP3 SLOAD PUSH2 0xDA9 JUMP JUMPDEST PUSH2 0x11FF DUP3 DUP3 DUP6 PUSH2 0xF03 JUMP JUMPDEST PUSH1 0x0 PUSH1 0x1F DUP4 GT PUSH1 0x1 DUP2 EQ PUSH2 0x122E JUMPI PUSH1 0x0 DUP5 ISZERO PUSH2 0x121C JUMPI DUP3 DUP8 ADD SLOAD SWAP1 POP JUMPDEST PUSH2 0x1226 DUP6 DUP3 PUSH2 0xF74 JUMP JUMPDEST DUP7 SSTORE POP PUSH2 0x1299 JUMP JUMPDEST PUSH1 0x1F NOT DUP5 AND PUSH2 0x123C DUP8 PUSH2 0x11A5 JUMP JUMPDEST SWAP7 POP PUSH2 0x1247 DUP7 PUSH2 0xDDA JUMP JUMPDEST PUSH1 0x0 JUMPDEST DUP3 DUP2 LT ISZERO PUSH2 0x126F JUMPI DUP5 DUP10 ADD SLOAD DUP3 SSTORE PUSH1 0x1 DUP3 ADD SWAP2 POP PUSH1 0x1 DUP6 ADD SWAP5 POP PUSH1 0x20 DUP2 ADD SWAP1 POP PUSH2 0x124A JUMP JUMPDEST DUP7 DUP4 LT ISZERO PUSH2 0x128C JUMPI DUP5 DUP10 ADD SLOAD PUSH2 0x1288 PUSH1 0x1F DUP10 AND DUP3 PUSH2 0xF56 JUMP JUMPDEST DUP4 SSTORE POP JUMPDEST PUSH1 0x1 PUSH1 0x2 DUP9 MUL ADD DUP9 SSTORE POP POP POP JUMPDEST POP POP POP POP POP POP JUMPDEST JUMP JUMPDEST PUSH32 0x4E487B7100000000000000000000000000000000000000000000000000000000 PUSH1 0x0 MSTORE PUSH1 0x31 PUSH1 0x4 MSTORE PUSH1 0x24 PUSH1 0x0 REVERT INVALID LOG2 PUSH5 0x6970667358 0x22 SLT KECCAK256 PUSH15 0xE367CF59B9ABD66B53B5B25A5789B8 DIFFICULTY 0x4A 0xFB GASPRICE 0x2A KECCAK256 JUMPDEST SWAP6 0xD8 0xC8 0xAA 0xCF DUP1 PUSH21 0xD72864736F6C634300081100330000000000000000 "},"methodIdentifiers":{"buy(address,string)":"83451838","getCollection(address)":"e40de887","gift(address,address,string)":"70488f01","sell(address,string)":"655f272e"}}}}}