{
  "_format": "hh-sol-artifact-1",
  "contractName": "ItemCollection",
  "sourceName": "contracts/ItemCollection.sol",
  "abi": [
    {
      "anonymous": false,
      "inputs": [
        {
          "indexed": true,
          "internalType": "address",
          "name": "owner",
          "type": "address"
        },
        {
          "indexed": false,
          "internalType": "string",
          "name": "item",
          "type": "string"
        }
      ],
      "name": "Buy",
      "type": "event"
    },
    {
      "anonymous": false,
      "inputs": [
        {
          "indexed": true,
          "internalType": "address",
          "name": "from",
          "type": "address"
        },
        {
          "indexed": true,
          "internalType": "address",
          "name": "to",
          "type": "address"
        },
        {
          "indexed": false,
          "internalType": "string",
          "name": "item",
          "type": "string"
        }
      ],
      "name": "Gift",
      "type": "event"
    },
    {
      "anonymous": false,
      "inputs": [
        {
          "indexed": true,
          "internalType": "address",
          "name": "owner",
          "type": "address"
        },
        {
          "indexed": false,
          "internalType": "string",
          "name": "item",
          "type": "string"
        }
      ],
      "name": "Sell",
      "type": "event"
    },
    {
      "inputs": [
        {
          "internalType": "address",
          "name": "_account",
          "type": "address"
        },
        {
          "internalType": "string",
          "name": "_item",
          "type": "string"
        }
      ],
      "name": "buy",
      "outputs": [],
      "stateMutability": "nonpayable",
      "type": "function"
    },
    {
      "inputs": [
        {
          "internalType": "address",
          "name": "_address",
          "type": "address"
        }
      ],
      "name": "getCollection",
      "outputs": [
        {
          "internalType": "string[]",
          "name": "",
          "type": "string[]"
        }
      ],
      "stateMutability": "view",
      "type": "function"
    },
    {
      "inputs": [
        {
          "internalType": "address",
          "name": "_from",
          "type": "address"
        },
        {
          "internalType": "address",
          "name": "_to",
          "type": "address"
        },
        {
          "internalType": "string",
          "name": "_item",
          "type": "string"
        }
      ],
      "name": "gift",
      "outputs": [],
      "stateMutability": "nonpayable",
      "type": "function"
    },
    {
      "inputs": [
        {
          "internalType": "address",
          "name": "_account",
          "type": "address"
        },
        {
          "internalType": "string",
          "name": "_item",
          "type": "string"
        }
      ],
      "name": "sell",
      "outputs": [],
      "stateMutability": "nonpayable",
      "type": "function"
    }
  ],
  "bytecode": "0x608060405234801561001057600080fd5b50611307806100206000396000f3fe608060405234801561001057600080fd5b506004361061004c5760003560e01c8063655f272e1461005157806370488f011461006d5780638345183814610089578063e40de887146100a5575b600080fd5b61006b60048036038101906100669190610a47565b6100d5565b005b61008760048036038101906100829190610aa3565b610184565b005b6100a3600480360381019061009e9190610a47565b6102bc565b005b6100bf60048036038101906100ba9190610b12565b61037f565b6040516100cc9190610c80565b60405180910390f35b60006100e18383610496565b90506000811215610127576040517f08c379a000000000000000000000000000000000000000000000000000000000815260040161011e90610cff565b60405180910390fd5b61013183826106ae565b8273ffffffffffffffffffffffffffffffffffffffff167f4f91c24b791e98fc3409614f2b262d620c1dc2f7fd263bd6a149fb34223e5409836040516101779190610d58565b60405180910390a2505050565b60006101908483610496565b905060008112156101d6576040517f08c379a00000000000000000000000000000000000000000000000000000000081526004016101cd90610cff565b60405180910390fd5b6101e084826106ae565b6000808473ffffffffffffffffffffffffffffffffffffffff1673ffffffffffffffffffffffffffffffffffffffff168152602001908152602001600020829080600181540180825580915050600190039060005260206000200160009091909190915090816102509190610f90565b508273ffffffffffffffffffffffffffffffffffffffff168473ffffffffffffffffffffffffffffffffffffffff167fc1340f88823fd1a662cd09eac20f01c2806a387ac043bb0ea8c47b72135bbc4f846040516102ae9190610d58565b60405180910390a350505050565b6000808373ffffffffffffffffffffffffffffffffffffffff1673ffffffffffffffffffffffffffffffffffffffff1681526020019081526020016000208190806001815401808255809150506001900390600052602060002001600090919091909150908161032c9190610f90565b508173ffffffffffffffffffffffffffffffffffffffff167f9d3d1943d35d4f7f2aea4530c02e43fe3be54e0bc5e79dfbb2a74d9cd2f06d51826040516103739190610d58565b60405180910390a25050565b60606000808373ffffffffffffffffffffffffffffffffffffffff1673ffffffffffffffffffffffffffffffffffffffff168152602001908152602001600020805480602002602001604051908101604052809291908181526020016000905b8282101561048b5783829060005260206000200180546103fe90610da9565b80601f016020809104026020016040519081016040528092919081815260200182805461042a90610da9565b80156104775780601f1061044c57610100808354040283529160200191610477565b820191906000526020600020905b81548152906001019060200180831161045a57829003601f168201915b5050505050815260200190600101906103df565b505050509050919050565b6000807fffffffffffffffffffffffffffffffffffffffffffffffffffffffffffffffff905060008060008673ffffffffffffffffffffffffffffffffffffffff1673ffffffffffffffffffffffffffffffffffffffff168152602001908152602001600020805480602002602001604051908101604052809291908181526020016000905b828210156105c857838290600052602060002001805461053b90610da9565b80601f016020809104026020016040519081016040528092919081815260200182805461056790610da9565b80156105b45780601f10610589576101008083540402835291602001916105b4565b820191906000526020600020905b81548152906001019060200180831161059757829003601f168201915b50505050508152602001906001019061051c565b50505050905060005b6000808773ffffffffffffffffffffffffffffffffffffffff1673ffffffffffffffffffffffffffffffffffffffff168152602001908152602001600020805490508110156106a25781818151811061062d5761062c611062565b5b602002602001015160405160200161064591906110cd565b604051602081830303815290604052805190602001208560405160200161066c91906110cd565b604051602081830303815290604052805190602001200361068f578092506106a2565b808061069a90611113565b9150506105d1565b50819250505092915050565b600060016000808573ffffffffffffffffffffffffffffffffffffffff1673ffffffffffffffffffffffffffffffffffffffff168152602001908152602001600020805490506106fe919061115b565b90506000808473ffffffffffffffffffffffffffffffffffffffff1673ffffffffffffffffffffffffffffffffffffffff16815260200190815260200160002081815481106107505761074f611062565b5b906000526020600020016000808573ffffffffffffffffffffffffffffffffffffffff1673ffffffffffffffffffffffffffffffffffffffff16815260200190815260200160002083815481106107aa576107a9611062565b5b9060005260206000200190816107c091906111ba565b506000808473ffffffffffffffffffffffffffffffffffffffff1673ffffffffffffffffffffffffffffffffffffffff16815260200190815260200160002080548061080f5761080e6112a2565b5b60019003818190600052602060002001600061082b9190610832565b9055505050565b50805461083e90610da9565b6000825580601f10610850575061086f565b601f01602090049060005260206000209081019061086e9190610872565b5b50565b5b8082111561088b576000816000905550600101610873565b5090565b6000604051905090565b600080fd5b600080fd5b600073ffffffffffffffffffffffffffffffffffffffff82169050919050565b60006108ce826108a3565b9050919050565b6108de816108c3565b81146108e957600080fd5b50565b6000813590506108fb816108d5565b92915050565b600080fd5b600080fd5b6000601f19601f8301169050919050565b7f4e487b7100000000000000000000000000000000000000000000000000000000600052604160045260246000fd5b6109548261090b565b810181811067ffffffffffffffff821117156109735761097261091c565b5b80604052505050565b600061098661088f565b9050610992828261094b565b919050565b600067ffffffffffffffff8211156109b2576109b161091c565b5b6109bb8261090b565b9050602081019050919050565b82818337600083830152505050565b60006109ea6109e584610997565b61097c565b905082815260208101848484011115610a0657610a05610906565b5b610a118482856109c8565b509392505050565b600082601f830112610a2e57610a2d610901565b5b8135610a3e8482602086016109d7565b91505092915050565b60008060408385031215610a5e57610a5d610899565b5b6000610a6c858286016108ec565b925050602083013567ffffffffffffffff811115610a8d57610a8c61089e565b5b610a9985828601610a19565b9150509250929050565b600080600060608486031215610abc57610abb610899565b5b6000610aca868287016108ec565b9350506020610adb868287016108ec565b925050604084013567ffffffffffffffff811115610afc57610afb61089e565b5b610b0886828701610a19565b9150509250925092565b600060208284031215610b2857610b27610899565b5b6000610b36848285016108ec565b91505092915050565b600081519050919050565b600082825260208201905092915050565b6000819050602082019050919050565b600081519050919050565b600082825260208201905092915050565b60005b83811015610ba5578082015181840152602081019050610b8a565b60008484015250505050565b6000610bbc82610b6b565b610bc68185610b76565b9350610bd6818560208601610b87565b610bdf8161090b565b840191505092915050565b6000610bf68383610bb1565b905092915050565b6000602082019050919050565b6000610c1682610b3f565b610c208185610b4a565b935083602082028501610c3285610b5b565b8060005b85811015610c6e5784840389528151610c4f8582610bea565b9450610c5a83610bfe565b925060208a01995050600181019050610c36565b50829750879550505050505092915050565b60006020820190508181036000830152610c9a8184610c0b565b905092915050565b600082825260208201905092915050565b7f596f7520646f6e277420686176652074686973206974656d2e00000000000000600082015250565b6000610ce9601983610ca2565b9150610cf482610cb3565b602082019050919050565b60006020820190508181036000830152610d1881610cdc565b9050919050565b6000610d2a82610b6b565b610d348185610ca2565b9350610d44818560208601610b87565b610d4d8161090b565b840191505092915050565b60006020820190508181036000830152610d728184610d1f565b905092915050565b7f4e487b7100000000000000000000000000000000000000000000000000000000600052602260045260246000fd5b60006002820490506001821680610dc157607f821691505b602082108103610dd457610dd3610d7a565b5b50919050565b60008190508160005260206000209050919050565b60006020601f8301049050919050565b600082821b905092915050565b600060088302610e3c7fffffffffffffffffffffffffffffffffffffffffffffffffffffffffffffffff82610dff565b610e468683610dff565b95508019841693508086168417925050509392505050565b6000819050919050565b6000819050919050565b6000610e8d610e88610e8384610e5e565b610e68565b610e5e565b9050919050565b6000819050919050565b610ea783610e72565b610ebb610eb382610e94565b848454610e0c565b825550505050565b600090565b610ed0610ec3565b610edb818484610e9e565b505050565b5b81811015610eff57610ef4600082610ec8565b600181019050610ee1565b5050565b601f821115610f4457610f1581610dda565b610f1e84610def565b81016020851015610f2d578190505b610f41610f3985610def565b830182610ee0565b50505b505050565b600082821c905092915050565b6000610f6760001984600802610f49565b1980831691505092915050565b6000610f808383610f56565b9150826002028217905092915050565b610f9982610b6b565b67ffffffffffffffff811115610fb257610fb161091c565b5b610fbc8254610da9565b610fc7828285610f03565b600060209050601f831160018114610ffa5760008415610fe8578287015190505b610ff28582610f74565b86555061105a565b601f19841661100886610dda565b60005b828110156110305784890151825560018201915060208501945060208101905061100b565b8683101561104d5784890151611049601f891682610f56565b8355505b6001600288020188555050505b505050505050565b7f4e487b7100000000000000000000000000000000000000000000000000000000600052603260045260246000fd5b600081905092915050565b60006110a782610b6b565b6110b18185611091565b93506110c1818560208601610b87565b80840191505092915050565b60006110d9828461109c565b915081905092915050565b7f4e487b7100000000000000000000000000000000000000000000000000000000600052601160045260246000fd5b600061111e82610e5e565b91507fffffffffffffffffffffffffffffffffffffffffffffffffffffffffffffffff82036111505761114f6110e4565b5b600182019050919050565b600061116682610e5e565b915061117183610e5e565b9250828203905081811115611189576111886110e4565b5b92915050565b60008154905061119e81610da9565b9050919050565b60008190508160005260206000209050919050565b8181036111c85750506112a0565b6111d18261118f565b67ffffffffffffffff8111156111ea576111e961091c565b5b6111f48254610da9565b6111ff828285610f03565b6000601f83116001811461122e576000841561121c578287015490505b6112268582610f74565b865550611299565b601f19841661123c876111a5565b965061124786610dda565b60005b8281101561126f5784890154825560018201915060018501945060208101905061124a565b8683101561128c5784890154611288601f891682610f56565b8355505b6001600288020188555050505b5050505050505b565b7f4e487b7100000000000000000000000000000000000000000000000000000000600052603160045260246000fdfea26469706673582212206ee367cf59b9abd66b53b5b25a5789b8444afb3a2a205b95d8c8aacf8074d72864736f6c63430008110033",
  "linkReferences": {},
  "deployedLinkReferences": {}
}